:020000040800F2
:1000000000400020411A0008911A0008911A0008C7
:1000100000000000000000000000000000000000E0
:10002000000000000000000000000000BD190008F2
:100030000000000000000000BF190008C1190008FE
:10004000911A0008911A0008911A0008911A0008E4
:10005000911A0008911A0008911A0008C91900089D
:10006000911A0008911A0008911A0008911A0008C4
:10007000911A0008911A0008911A0008911A0008B4
:10008000911A0008911A0008911A0008911A0008A4
:10009000911A0008911A0008911A0008911A000894
:1000A000911A0008911A0008911A0008911A000884
:1000B000911A0008911A0008911A0008911A000874
:1000C00010B5064C2378002B07D1054B002B02D02E
:1000D000044800E000BF0123237010BD740000201D
:1000E0000000000060240008044B10B5002B03D072
:1000F0000349044800E000BF10BDC04600000000F6
:10010000780000206024000802B4714649084900C4
:10011000095649008E4402BC7047C04602B471467D
:1001200049084900095C49008E4402BC7047C0463A
:10013000002243088B4274D303098B425FD3030A26
:100140008B4244D3030B8B4228D3030C8B420DD339
:10015000FF22090212BA030C8B4202D312120902C7
:1001600065D0030B8B4219D300E0090AC30B8B4205
:1001700001D3CB03C01A5241830B8B4201D38B03B3
:10018000C01A5241430B8B4201D34B03C01A524158
:10019000030B8B4201D30B03C01A5241C30A8B429B
:1001A00001D3CB02C01A5241830A8B4201D38B0286
:1001B000C01A5241430A8B4201D34B02C01A52412A
:1001C000030A8B4201D30B02C01A5241CDD2C3099C
:1001D0008B4201D3CB01C01A524183098B4201D318
:1001E0008B01C01A524143098B4201D34B01C01A03
:1001F000524103098B4201D30B01C01A5241C3087B
:100200008B4201D3CB00C01A524183088B4201D3E9
:100210008B00C01A524143088B4201D34B00C01AD5
:100220005241411A00D20146524110467047FFE741
:1002300001B5002000F006F802BDC0460029F7D045
:1002400076E770477047C04670B50500FA200D4B41
:1002500080001978FFF76CFF0B4B01001868FFF75F
:1002600067FF00F085F804000120002C09D1032D60
:1002700007D802382200290000F03EF82000034B86
:100280001D6070BD000000200C0000200400002054
:100290001023064A10B5116800200B431360FFF7C6
:1002A000D3FF01F0CDFA002010BDC046002002406F
:1002B000034A044B11681B785B1813607047C046F3
:1002C000A400002000000020014B18687047C046C1
:1002D000A400002070B50400FFF7F6FF0500631CC2
:1002E00002D0044B1B78E418FFF7EEFF401B84425A
:1002F000FAD870BD0000002070B58901002812DB1B
:100300008308134A03249B009B18FF222040A0402F
:100310001400C025844011408140AD005E59A643C1
:100320003143595170BD03240F23C0B20340204014
:10033000A040FC342500214085408140083B054A0F
:100340009B089B009B18DA69AA431143D961E9E72E
:1003500000E100E000ED00E0002805DB1F2318406D
:100360001E3B8340014A13607047C04600E100E035
:10037000094A431E012093420DD8C021074A08486C
:100380005360036A09061B021B0A0B430362002029
:100390000723906013607047FFFFFF0010E000E04C
:1003A00000ED00E0F0B5564A0B688218541EA241D9
:1003B00089B00393002304320592039ADA4001D1F5
:1003C00009B0F0BD01229A4094466446039A224047
:1003D000029200D192E04A6801921022019E964357
:1003E000022E0DD107240F271C40A400A740DA08D5
:1003F00092008218156ABD430F69A7403D431562FC
:10040000032214005D00AC40E4430768013E27402E
:100410000497019F3A40AA40049F3A430260012E8C
:100420000ED8CA688668AA40264032438260624677
:1004300046689643019AD206D20F9A4032434260F0
:10044000C26814408A68AA401443019AC460D2006A
:1004500054D501262B4A1D00946934439461926956
:100460009C0832400792079A274AA400A418A26861
:10047000944603221540AD000C32AA4067469743CC
:100480009022D2059446002260450DD01F4A944622
:100490003200604508D01E4E9218B04204D01D4E66
:1004A0000132B04200D0059AAA403A43A2601A4AEB
:1004B000029C1668029D019FE4433543FF0301D46B
:1004C0003500254015605668029D019F3543BF03E6
:1004D00001D43500254055609668029D019F354343
:1004E000FF0201D4350025409560D568029E019F2A
:1004F0002E43BF0201D425402E00D66001335CE7B5
:1005000000F0FFB700100240000001400004004866
:1005100000080048000C004800040140002A01D0F7
:10052000816170478162FCE7044B10B55A69104243
:1005300002D0586100F0CEFF10BDC046000401405B
:10054000F0B5040085B0002802D1012005B0F0BD4F
:100550000368DB0733D423689B0700D587E0236853
:100560001B0700D5C8E023685B0700D5EBE02368D4
:10057000DB061AD56269BC4D0423012A00D057E17D
:10058000696B02260B436B636B6B1A436A63FFF75D
:100590009BFE07006B6B334200D142E1F8216A6B8E
:1005A000A3698A43DB0013436B6323689B0600D572
:1005B00066E1626A002A00D0A3E10020C6E70C21B0
:1005C000A94D6A680A40042A0BD06B680B40082BBF
:1005D0000ED1C0226B685202134080225202934215
:1005E00006D12B689B03B6D56368002BB3D1ACE76B
:1005F0006368012B13D180232A685B0213432B60AD
:10060000FFF762FE80260700B6022B683342A2D1B4
:10061000FFF75AFEC01B6428F7D9032096E7002B8A
:1006200015D12B68914A802613402B602B68904A85
:10063000B60213402B60FFF747FE07002B683342DA
:1006400089D0FFF741FEC01B6428F7D9E5E7052BE9
:1006500005D180232A68DB0213432B60CBE72B688C
:10066000824A13402B602B68814A1340C7E70C2253
:100670007D4D6B6813420BD06B681340082B16D16D
:10068000C0226B68520213408022120293420ED1A4
:100690002B689B0703D5E368012B00D055E7F821B1
:1006A0002A6823698A43DB0013432B6057E7E2681B
:1006B0000123002A0FD02A68022613432B60FFF77C
:1006C00003FE07002B683342E9D1FFF7FDFDC01B95
:1006D0000228F7D9A1E72A6802269A432A60FFF781
:1006E000F3FD07002B68334200D138E7FFF7ECFD3C
:1006F000C01B0228F6D990E7E26901235A4D002A6F
:1007000010D06A6A022613436B62FFF7DDFD070013
:100710006B6A334200D026E7FFF7D6FDC01B0228E4
:10072000F6D97AE76A6A02269A436A62FFF7CCFD35
:1007300007006B6A334200D115E7FFF7C5FDC01B08
:100740000228F6D969E780220021474D5205EB695E
:100750000091134208D1EB691343EB61EB6913403D
:100760000393039B012300938027424E7F0033684D
:100770003B4206D0A368012B13D12A6A13432B6294
:1007800030E033683B433360FFF79EFD01903368F0
:100790003B42EFD1FFF798FD019BC01A6428F6D9C0
:1007A0003BE70122002B14D12B6A022793432B62D3
:1007B0002B6A033293432B62FFF786FD06002B6AF8
:1007C0003B4225D0FFF780FD2B4B801B9842F6D98A
:1007D00023E7052B0BD1296A013B0B432B622B6AC4
:1007E0001A432A62FFF770FD022706000DE02B6A0C
:1007F000934304222B622B6A9343C0E7FFF764FD07
:100800001D4B801B984200D907E72B6A3B42F5D06D
:10081000009B012B00D0AAE6EB69184A1340EB615C
:10082000A5E6FFF751FDC01B022800D8B2E6F4E6AA
:10083000053203D16A6B9A436A63AFE66A6B02269C
:10084000134301226B636B6B93436B63FFF73CFDB8
:1008500007006B6B334200D1A7E6FFF735FDC01BE5
:100860000228F6D9D9E6C04600100240FFFFFEFF7D
:10087000FFFFFBFF0070004088130000FFFFFFEF49
:100880000C21534D6A680A408A4209D06B680B40BC
:10089000082B0ED1C0226B6852021340934208D13C
:1008A0006B6BDB0300D484E6236A012B00D04CE69B
:1008B0007FE6236A002B11D080266B6B76023343D0
:1008C0006B63FFF701FD07006B6B334200D070E6EE
:1008D000FFF7FAFCC01B0228F6D99EE66B6B3D4A77
:1008E000802613406B63FFF7EFFC070076026B6B0B
:1008F000334200D15DE6FFF7E7FCC01B0228F6D9C2
:100900008BE60C20324B59681D000140082944D069
:100910001B6831490B402B60022A2FD1FFF7D4FC12
:1009200080260700B6042B68334221D10F22EB6AE0
:100930009343226B1343EB62A16AE36A6A680B4339
:10094000264980240A4013436B6080232A685B0495
:1009500013432B60FFF7B8FC0600A4042B68234266
:1009600000D02AE6FFF7B0FC801B0228F6D954E637
:10097000FFF7AAFCC01B0228D5D94EE6FFF7A4FC5E
:1009800080240600A4042B68234200D115E6FFF75B
:100990009BFC801B0228F6D93FE6012A00D1D4E552
:1009A000C0225868A16A5202DB6A02408A4200D023
:1009B000CBE50F221340226B934200D0C5E5F02314
:1009C0009B031840E36AC01A431E9841C0B2BDE5BC
:1009D00000100240FFFFFEFFFFFFFFFEFF7FC2FF90
:1009E00070B5194C88B010222100684601F07CF8DF
:1009F000210004AD10221031280001F075F80C22FE
:100A0000124E73681A40082A04D00C2A1AD11048D2
:100A100008B070BD0F206A46990C0140545CF26A20
:100A20000240A95CC022802052021340400283424F
:100A300001D1084802E09342FBD10548FFF778FB5B
:100A40006043E5E70348E3E778240008001002402C
:100A5000006CDC0200127A00F7B505000F000028D8
:100A600001D10120FEBD01223B4C236813408B4283
:100A70001CD329688B0722D4CB072FD401232268EB
:100A80001A40974259D32B68344C5B075DD4FFF76B
:100A9000A7FF6368324A1B061B0FD35CD840314B5B
:100AA00018600020FFF7D0FB0020DBE723689343AA
:100AB0000B432360236813409942D2D1D9E7274AD8
:100AC0004B0704D5E0235068DB0003435360F0205C
:100AD00053688343A86803435360CDE76A681F4E99
:100AE000012A1AD133689B03BBD5032173688B435A
:100AF00013437360FFF7E8FB01900C2372681A4000
:100B00006B689B009A42B9D0FFF7DEFB019BC01ACD
:100B1000154B9842F1D90320A4E7022A03D1336888
:100B20009B01E2D49DE7032A03D1736BDB03DCD482
:100B300097E733689B07D8D493E722689A432260EB
:100B400022681A4200D08CE79DE76368074A134089
:100B5000EA68134363609AE70020024000100240F5
:100B6000A32400080C00002088130000FFF8FFFFFA
:100B7000044B054A5B685B055B0FD35C034A106856
:100B8000D840704700100240B32400080C00002039
:100B9000F0B5036885B00500DB0328D5802200216D
:100BA000444C5205E3690091134208D1E3691343B1
:100BB000E361E36913400393039B012300938027C0
:100BC0003D4E7F0033683B4241D0C022236A9200F1
:100BD00013403A4E4DD1236A1E406B681E43009B62
:100BE0002662012B03D1E369354A1340E3612B6888
:100BF000DA0706D503202F490A6B8243A86802430F
:100C00000A639A0706D52B492E480A6B0240E8680A
:100C100002430A639A0606D5102026490A6B8243CE
:100C2000286902430A639A0306D5802021490A6B8A
:100C30008243A86902430A6300205B0517D540215F
:100C40001C4A136B8B4369690B4313630FE03368D2
:100C50003B433360FFF738FB019033683B42B4D12C
:100C6000FFF732FB019BC01A6428F6D9032005B0B8
:100C7000F0BD69680A409342ADD08023226A206AA1
:100C800011005B0203432362236A0F483140034093
:100C900023622162D3079ED5FFF716FB07000222CD
:100CA000236A134297D1FFF70FFB084BC01B9842F2
:100CB000F5D9DBE70010024000700040FFFCFFFFA9
:100CC000FFFFFFEFFFFFFCFFFFFFFEFF88130000A9
:100CD000F8B504000120002C4BD000232500A362AE
:100CE0005D352B78DBB2002B05D122005C3213700E
:100CF000200000F0BDFD0223402221682B700B680C
:100D0000002093430B60E023E268DB009A4231D974
:100D1000F0263601B24233D10600206B002803D101
:100D20009A422FD902232363A7686368A0693B43D3
:100D300027693B4367693B43E7693B43276A3B437A
:100D4000A76A3B438027BF0007403B430B60636AB1
:100D5000000C1A43636B1A430423184010430643E4
:100D60004E60CB69084A00201340CB610123206606
:100D70002B70F8BD802676019A42CED0A062CCE7D7
:100D80000600FBE70123CEE7FFF7FFFF204A10B57F
:100D90000368904206D08024E405A04202D01D4C96
:100DA000A0420CD17024A3434C682343904212D03C
:100DB0008024E405A0420ED0164CA0420BD0164C65
:100DC000A04208D0154CA04205D0154CA04202D03C
:100DD000144CA04203D1144C2340CC6823438024FC
:100DE000A3434C69234303608B68C3620B6883622F
:100DF000904208D0094B984205D0094B984202D046
:100E0000084B984201D10B6903630123436110BD74
:100E1000002C014000040040002000400040014040
:100E20000044014000480140FFFCFFFF70B5040092
:100E30000120002C14D025003D352B78DBB2002B8F
:100E400005D122003C321370200000F065FD022322
:100E500020682B70211DFFF799FF012300202B70C4
:100E600070BD000030B58468034D0A431B022C405E
:100E700013432343836030BDFF00FFFFF8B5050037
:100E800002233C352A7804001800012A16D02600D7
:100E9000012720683D362F7033708368404A134025
:100EA00083600B68402B65D014D8102B0BD006D86C
:100EB000002B08D00123002033702870F8BD202BB0
:100EC00001D0302BF6D1702281689143693A1343E7
:100ED0000B431AE0602B35D019D8502BEAD14A6861
:100EE000CB68016A046A1B01BC43F0270462846971
:100EF000BC4323430A24A1430A4383610262702254
:100F0000836893431A00572313438360D2E7702BFF
:100F10000DD0802292019342CCD1CB684A68896877
:100F2000FFF7A0FF80232268DB01916807E0CB6810
:100F30004A688968FFF796FF7723226891680B4318
:100F40009360B7E710244B68CA68016A154FA14344
:100F50000162846912033C402243A024016A826139
:100F60007022A1431B010B430362836893431A0061
:100F70006723C9E74A68CB68016A046A1B01BC435E
:100F8000F02704628469BC4323430A24A1430A4333
:100F9000836102627022836893431A004723B3E798
:100FA0008800FFFFFF0FFFFF70B5040002223C34F2
:100FB000257803001000012D22D01D0070261B682B
:100FC00001383D3520702A7058689A68B0430E6821
:100FD000304358600B48834209D08020C0058342CB
:100FE00005D00948834202D00848834204D18020BA
:100FF000496882430A439A60012300202B702070C5
:1010000070BDC046002C014000040040004001407B
:1010100070B504002569A26803682A436569C1693F
:101020002A431868534D0A43284002431A605A68FD
:101030005148256A0240E06802435A60A2699868F4
:101040002A434E4D284002439A604D4A934213D1A1
:1010500003224C4B1B6B13404B4AD05C80231B027A
:10106000994200D17DE0082844D8FFF757F875432E
:101070004543554343435800444A934234D1C0202A
:10108000802580223F4B80021B6B6D0203401202C1
:10109000AB4253D005D8002B5CD00120914229D11E
:1010A0001EE08025AD02AB424DD08342F5D1914286
:1010B00022D163685808364BC0186168FFF738F8CA
:1010C00080B20300334A103B934213D80F2302002F
:1010D0009A43130000072268400F1843D060002095
:1010E00000232366636670BD2B4A93421CD02B4AB3
:1010F000934219D00120F3E763685808284BC018C1
:101100006168FFF715F880B20300224A103B934252
:10111000F0D82368D860E2E7FFF762FC1EE063685E
:10112000580880231B02EAE780231B02994213D14F
:10113000FFF71EFD636840005B08BDE79142EBD1FD
:10114000FFF74EFCF6E79142E9D163685808802327
:101150005B02B1E79142EBD0FFF70AFD63685B08E1
:10116000CDE70828C6D8FEF7CFFFE3C5A4C5EBC579
:10117000C5C5F000F369FFEFFFCFFFFFFFF4FFFFEE
:10118000003801400010024098240008004400404C
:101190000024F400EFFF000000480040004C004035
:1011A00000127A00436A30B5DA0706D50168284C88
:1011B0004A682240846A22434A609A0706D5016839
:1011C000244C4A682240C46A22434A605A0706D522
:1011D0000168214C4A682240046B22434A601A0786
:1011E00006D501681D4C4A682240446B22434A6080
:1011F000DA0606D501681A4C8A682240846B2243BD
:101200008A609A0606D50168164C8A682240C46B2B
:1012100022438A605A0610D50168134D4A68046C4F
:101220002A4022434A6080225203944205D14A68F0
:101230000E4C2240446C22434A601B0606D50268CD
:101240000B4953680B40816C0B43536030BDC04663
:10125000FFFFFDFFFFFFFEFFFFFFFBFFFF7FFFFF25
:10126000FFEFFFFFFFDFFFFFFFFFEFFFFFFF9FFF2E
:10127000FFFFF7FFF7B5802704000E00150001936C
:101280003F012268D36933409B1B59424B41AB421B
:1012900001D000201CE0089B0133F3D0FFF714F8C5
:1012A000019B089AC01A2368824201D3002A10D1F8
:1012B0001A6813490A401A609A68A331FF318A43B9
:1012C0009A6020236367A367002303207034237090
:1012D000FEBD04211A680A42D3D0DA693A42D0D05E
:1012E0001F621A6806490A401A609A68A331FF31E2
:1012F0008A439A6020236367A367E367E4E7C046F5
:101300005FFEFFFFF0B587B00593436F04000D004B
:1013100017000220202B49D10138002946D0002A8D
:1013200044D08023A2685B019A4204D12369002B38
:1013300001D101423AD1230070331A780220012AE8
:1013400034D0012200261A702123E6676367FEF776
:10135000BBFF230050331F80023303931F80802381
:10136000A26804905B019A4204D12369B34201D17F
:101370002E001D00230052331A88059B92B2009361
:10138000049B002A0AD140212000FFF773FF0028A8
:101390000BD1202370346360207007E0002280218D
:1013A0002000FFF767FF002802D0032007B0F0BD40
:1013B0002268002D0BD133880236DB05DB0D138547
:1013C000039B039A1B88013B9BB21380D2E72B78C7
:1013D00001351385F4E7000073B500260400C667E5
:1013E000FEF772FF236805001B681B0715D42368EE
:1013F0001B685B070AD580210E4B00220093C903AE
:101400002B002000FFF736FF002811D120230020F9
:101410006367A367703420700BE08021054B3200B6
:101420000093890303002000FFF724FF0028DED08B
:10143000032076BDFFFFFF0110B5041E01D101207E
:1014400010BD436F002B04D102007032137000F006
:1014500087FA2423012122686367136820008B43E5
:101460001360FFF7D5FD0128E9D0636A002B02D095
:101470002000FFF797FE236807495A6820000A40BA
:101480002A215A609A688A439A60012219680A439D
:101490001A60FFF7A1FFD3E7FFB7FFFF13B5040002
:1014A00001A908700A2301220248FFF72BFF200040
:1014B00016BDC046F401002070B50E0015000C00EA
:1014C000A31B9D4201DC280070BD2078FFF7E6FFDA
:1014D0000134F5E710B50E4C23685A1C22608022B7
:1014E00012041A4113000B4A12681A4000D001225C
:1014F00040210948FFF712F82368192B06D1002272
:1015000040210548FFF70AF80023236010BDC046BC
:101510009000002008000020000800489021802052
:1015200070B5192210240A4BC905000188621C609D
:101530001D686E1E1E60002DFAD188611C601D683A
:101540006E1E1E60002DFAD1013A002AEED170BD48
:101550009400002070B5102598B0342200210BA80B
:1015600000F0CBFA2A000021684600F0C6FA1C22DF
:10157000002104A800F0C1FA80231B021593C023A8
:10158000022401265B030BA80F95169300250B94EC
:101590000E9614941796FEF7D3FF07233100684682
:1015A0000093019402950395FFF756FA04A804945A
:1015B0000795FFF7EDFA18B070BD0000F0B58DB0DB
:1015C000FEF766FEFFF7C6FF1422002107A800F011
:1015D00094FA80208A4B000359698026014359619F
:1015E0005A697600024080200192019A5969C0032D
:1015F000014359615A690024024080200292029AF4
:10160000596980020143596180215A69C902024027
:101610000392039A5A697B480A435A615B69012223
:101620000B4004930221049BFEF778FF0122402126
:101630007548FEF773FF002280217348FEF76EFFA6
:10164000902031000022C005FEF768FF8021902025
:1016500001220901C005FEF761FF002270216948DF
:10166000FEF75CFF0125722307A9664807930895DA
:1016700009940A94FEF796FE0C2307A96148079384
:1016800008940994FEF78EFEC02307A95E480793CD
:10169000089509940A94FEF785FE5C4B07A95A4801
:1016A000079608930995FEF77DFE902390201B0175
:1016B00007A9C0050793089509940A94FEF772FEDE
:1016C000220021000720FEF717FE0720FEF744FE48
:1016D0004F48504BF83E036082235B004360E02399
:1016E000DB00C36080239B008361FA3BFF3BC36246
:1016F000846004614461C46104624462846204637E
:101700004663FFF7E5FA1022210007A800F0F5F97B
:101710003200210005A800F0F0F93F4D3F4B802733
:101720002B6030236B603E4B2800EB60AC602C617B
:10173000AC617F01FFF77AFB07A928000797FFF745
:101740009DFB05A9280005940694FFF72DFC35485C
:10175000354B84600360E1235B0243600C23C4606B
:10176000436104618461C46104624462FFF764FE02
:101770002E482F4B8460036082235B004360E0238C
:10178000DB00C36080239B008361E93BFF3BC361B7
:10179000113BC36204614461046244628462046375
:1017A0004463FFF795FA1022210007A800F0A5F97D
:1017B0003200210005A800F0A0F91E4D1E4B2800A4
:1017C0002B6020236B604333EB60AC602C616C6159
:1017D000AC61FFF72BFB07A928000797FFF74EFB2B
:1017E00005A9280005940694FFF7DEFB134800F0D6
:1017F000EDF9FFF793FE6420FEF76CFDF9E7C046B4
:1018000000100240000400480008004800001110C9
:1018100090010020003001400C0100200004004035
:10182000E7030000F401002000440040A80000206D
:101830000038004050010020002C01409C2400088A
:1018400001200A4B82B099690143996180219A690C
:10185000490502400092009ADA690A43DA61DB69BD
:101860000B400193019B02B07047C046001002403C
:1018700010B504008AB01422002105A800F03DF93B
:101880002368214A93421FD18020204B400199694F
:101890000143996180219A69890202400192019A6B
:1018A0005A6990200A435A615B69C0050B40029354
:1018B000029BE0230593DE3B06930133089305A9C1
:1018C000FEF770FD0AB010BD114A9342FAD1802094
:1018D0000E4BC001D9690143D9618021DA69C9027F
:1018E00002400392039A5A690A480A435A615B69A3
:1018F0000B400493049BE0231B02059302230693F1
:101900000133089305A9DBE70030014000100240D5
:10191000003800400004004803680E4A82B0934239
:101920000BD180200C4A00019169014391619369B8
:1019300003400093009B02B07047084A9342FAD1DB
:101940000220054AD1690143D161D3690340019363
:10195000019BF0E7002C0140001002400004004011
:1019600010B5040088B01422002103A800F0C5F8C7
:10197000104B22689A421BD180220F4B9202D969E8
:1019800090201143D961D969C00511400191019995
:101990005969114359615B6903A91A400292029B7C
:1019A0000C2303930A3B0493013B0793FEF7FAFCD5
:1019B00008B010BD0044004000100240704770475E
:1019C00010B5FEF775FC10BD802010B54000FEF785
:1019D000ABFD10BD70B50E0015000C00A31B9D42A1
:1019E00001DC280070BD00E000BF20700134F5E785
:1019F0000A4B10B519680200002901D10849196085
:101A00006946186882188A4206D900F043F80C2308
:101A100003600120404210BD1A60FCE798000020DE
:101A20007C02002001204042704780239B0100205F
:101A30004B607047012070470020704770470000DE
:101A40000D4885460D480E490E4A002302E0D45841
:101A5000C4500433C4188C42F9D30B4A0B4C0023F6
:101A600001E013600432A242FBD3FFF7E7FF00F06E
:101A700017F8FFF7A3FDFEE700400020000000205C
:101A80007400002028250008740000207C0200203B
:101A9000FEE70000014B18687047C04610000020A8
:101AA00070B500260C4D0D4C641BA410A64209D144
:101AB000002600F0D5FC0A4D0A4C641BA410A64277
:101AC00005D170BDB300EB5898470136EEE7B3007F
:101AD000EB5898470136F2E720250008202500083A
:101AE0002025000824250008002310B59A4200D1C3
:101AF00010BDCC5CC4540133F8E703008218934254
:101B000000D1704719700133F9E7000070B5050086
:101B10000E00002804D08369002B01D100F024FAC4
:101B2000AB69AC68002B02D1280000F01DFA244BF1
:101B30009C420FD16C68A3891B0702D52369002B37
:101B400020D12100280000F0A1F800281AD001209F
:101B5000404270BD1B4B9C4201D1AC68EBE71A4B75
:101B60009C42E8D1EC68E6E7013B0136A360002B1C
:101B700004DAA269934216DB0A2914D023685A1C9E
:101B8000226019703178A3680029EDD1013BA36070
:101B9000002B0FDA22000A31280000F021F8431C44
:101BA000D5D00A20D5E72200280000F019F8431C00
:101BB000E8D1CCE70A2023685A1C22601870C8E7D5
:101BC000E024000800250008C024000810B5034BDD
:101BD00001001868FFF79AFF10BDC04610000020F2
:101BE000F8B505000E001400002804D08369002B0E
:101BF00001D100F0B9F9224B9C422DD16C68A36948
:101C0000A360A3891B0731D52369002B2ED023683D
:101C10002269F7B2981A6369F6B2984205DB21008F
:101C2000280000F033F9002826D1A3680130013BD9
:101C3000A36023685A1C22601F706369984204D015
:101C4000A389DB071AD50A2E18D12100280000F03D
:101C50001DF9002812D00FE00A4B9C4201D1AC685C
:101C6000CDE7094B9C42CAD1EC68C8E721002800A7
:101C700000F00CF80028CAD0012676423000F8BDEA
:101C8000E024000800250008C0240008364B70B589
:101C90001D6806000C00002D05D0AB69002B02D199
:101CA000280000F061F9314B9C420FD16C680C2385
:101CB000E25E93B219072DD4D90611D4092301206D
:101CC000336037331343A381404270BD284B9C429D
:101CD00001D1AC68EBE7274B9C42E8D1EC68E6E722
:101CE0005B0713D5616B002908D023004433994268
:101CF00002D0300000F03AFA002363632422A38963
:101D00009343A38100236360236923600823A2898E
:101D10001343A3812369002B0BD1A0218022A38927
:101D2000890092000B40934203D02100300000F064
:101D3000D9F90123A289134011D00023A36063695C
:101D40005B42A361002023698342BED10C23E25E83
:101D50001306BAD540231343A3810138B5E7920790
:101D600000D46369A360EDE710000020E0240008C0
:101D700000250008C0240008F7B58A8905000C007A
:101D8000130760D44B68002B04DC0B6C002B01DCC8
:101D90000020FEBDE76A002FFAD000232E682B60DA
:101DA00080235B011A4034D0606DA3895B0706D5A0
:101DB0006368C01A636B002B01D0236CC01A020049
:101DC000216A00232800E76AB847A189431C06D18D
:101DD0002B681D2B31D82C4ADA40D3072DD5002390
:101DE000636023692360CB0405D5431C02D12B68B3
:101DF000002B00D16065616B2E600029C8D02300E4
:101E00004433994202D0280000F0B0F9002060630A
:101E1000BFE70123216A2800B847431CC5D12B68BE
:101E2000002BC2D01D2B01D0162B01D12E60AFE7A5
:101E30004023A2891343A381ABE740230B43012036
:101E4000A3814042A5E70F69002FA1D00B680F6066
:101E5000DB1B01930023920700D14B69A360019B18
:101E6000002B00DC94E7019B3A00216A2800A66A57
:101E7000B047002803DC4023A2891343DFE7019B1E
:101E80003F181B1A0193EAE7010040200B6970B567
:101E900005000C00002B01D1002070BD002804D0EB
:101EA0008369002B01D100F05FF80B4B9C4209D1F4
:101EB0006C680C22A35E002BEED021002800FFF7F7
:101EC0005BFFEAE7054B9C4201D1AC68F1E7044BAC
:101ED0009C42EED1EC68ECE7E02400080025000805
:101EE000C024000810B5024900F0B2F810BDC04689
:101EF0008D1E0008002310B504000360436083605A
:101F000081814366C28103614361836119000822B4
:101F10005C30FFF7F2FD054B24626362044BA36261
:101F2000044BE362044B236310BDC046E12200086A
:101F300009230008412300086D23000870B56825B7
:101F40004A1E55430E002900743100F059F9041E51
:101F500008D000212A00016046600C30A060683281
:101F6000FFF7CBFD200070BD836913B50400002B83
:101F700028D18364C3640365134B144A1B688262CF
:101F80000193984201D101238361200000F020F8E1
:101F90006060200000F01CF8A060200000F018F83D
:101FA0000022E06004216068FFF7A4FF01220921FC
:101FB000A068FFF79FFF02221221E068FFF79AFF57
:101FC0000123A36113BDC046BC240008E51E000820
:101FD000F8B51E4B07001E68B369002B02D1300014
:101FE000FFF7C2FF4836B4687368013B04D5336815
:101FF000002B07D03668F6E70C22A55E002D0DD029
:102000006834F2E704213800FFF798FF30600028B9
:10201000F0D10C2304003B602000F8BD0123200018
:102020005B42E3810233A38165662560A56065603C
:1020300025616561A561082229005C30FFF75DFD1F
:102040006563A563A564E564E6E7C046BC240008B3
:10205000F7B504000700002601914834002C01D197
:102060003000FEBD6368A5680093009B013B0093B0
:1020700001D52468F2E7AB89012B08D90E22AB5EAB
:10208000013304D029003800019B98470643683586
:10209000EBE7000070B50E001D000E23C95E90B086
:1020A0001400002907DA00232B60B3891B0611D422
:1020B0008023DB000FE001AA00F084F90028F2DBA6
:1020C000F022029B12021340054A9B185A425341C8
:1020D0002B60EDE740230020236010B070BDC046A8
:1020E00000E0FFFFF7B502268B8905000C003342A4
:1020F00006D0230047332360236101236361F7BDCA
:1021000001AB6A46FFF7C6FF00990700280000F000
:1021100077F8002808D10C22A35E9A05EFD4032299
:1021200093431E43A681E4E70F4BAB628023A28951
:1021300020601343A381009B20616361019B002BFE
:102140000DD00E23E15E280000F04EF9002806D0E5
:102150000322A38993431A0001231343A381A08977
:102160003843A081CBE7C046E51E000870B50500E6
:10217000002910D00C1F2368002B00DAE418280077
:1021800000F058F91D4A1368002B05D163601460F4
:10219000280000F050F970BDA34209D921686018E9
:1021A0008342F3D118685B6841182160EEE71300A1
:1021B0005A68002A01D0A242F9D919685818A042D9
:1021C0000BD120680918581819608242E0D11068B4
:1021D0005268411819605A60DAE7A04202D90C230C
:1021E0002B60D5E721686018824203D110685268DD
:1021F0004118216062605C60CAE7C0469C00002014
:10220000032370B5CD1C9D43083506000C2D1ED24E
:102210000C25A9421DD8300000F00CF9254A14689D
:102220002100002919D1244C2368002B03D1300050
:1022300000F044F820602900300000F03FF8431C13
:102240002CD10C233000336000F0F5F803E0002DB2
:10225000DFDA0C233360002070BD0B685B1B1AD4DF
:102260000B2B03D90B60CC18256003E08C420ED1F8
:1022700063681360300000F0DEF8200007220B30A6
:10228000231D9043C31AE7D05A42E250E4E74B685B
:1022900063600C00EEE70C004968C2E70323C41C2E
:1022A0009C43A042E0D0211A300000F007F8431C04
:1022B000DAD1C6E79C000020A0000020002370B502
:1022C000064C050008002360FFF792FB431C03D176
:1022D0002368002B00D02B6070BDC0467802002020
:1022E00070B50C000E25495F00F0A6F8002803DB4E
:1022F000636D1B18636570BDA389024A1340A381F7
:10230000F9E7C046FFEFFFFFF8B51F008B89050016
:102310000C001600DB0505D50E23C95E0022022342
:1023200000F074F8A389054A28001340A381320005
:102330000E23E15E3B0000F01FF8F8BDFFEFFFFF4A
:1023400070B50C000E25495F00F060F8A389421CAF
:1023500003D1054A1340A38170BD8022520113436B
:10236000A3816065F8E7C046FFEFFFFF10B50E23BD
:10237000C95E00F015F810BD70B505000800110029
:102380000022064C22601A00FFF796F8431C03D186
:102390002368002B00D02B6070BDC046780200205F
:1023A000002370B5064C050008002360FFF73AFBD8
:1023B000431C03D12368002B00D02B6070BDC046A6
:1023C00078020020002370B5064C050008001100BB
:1023D0002360FFF72AFB431C03D12368002B00D0A6
:1023E0002B6070BD78020020002370B5064C0500FC
:1023F00008002360FFF71EFB431C03D12368002B5A
:1024000000D02B6070BDC0467802002070B505007A
:10241000080011000022064C22601A00FFF70CFB96
:10242000431C03D12368002B00D02B6070BDC04635
:10243000780200207047704770B505000800110051
:102440000022064C22601A00FFF7C4FA431C03D195
:102450002368002B00D02B6070BDC046780200209E
:10246000F8B5C046F8BC08BC9E467047F8B5C046F3
:08247000F8BC08BC9E46704751
:1024780002030405060708090A0B0C0D0E0F1010BD
:102488000102030405060708090A0B0C0D0E0F10BC
:102498000004080253746172740D0000000000000B
:1024A80000000001020304060708090000000001FB
:1024B80002030400140000200000000000000000D7
:1024C8000000000000000000000000000000000004
:1024D80000000000000000000000000000000000F4
:1024E80000000000000000000000000000000000E4
:1024F80000000000000000000000000000000000D4
:1025080000000000000000000000000000000000C3
:082518000000000000000000BB
:04252000E9000008C6
:04252400C1000008EA
:102528000100000004000000FFA0A00000127A00D3
:102538001400002000000000E02400080025000826
:10254800C024000800000000000000000000000097
:102558000000000000000000000000000000000073
:102568000000000000000000000000000000000063
:102578000000000000000000000000000000000053
:102588000000000000000000000000000000000043
:04259800000000003F
:0400000508001A4194
:00000001FF
